{
  "contractName": "Refund",
  "abi": [
    {
      "inputs": [],
      "stateMutability": "nonpayable",
      "type": "constructor"
    },
    {
      "inputs": [
        {
          "internalType": "address",
          "name": "",
          "type": "address"
        }
      ],
      "name": "employeeCondition",
      "outputs": [
        {
          "internalType": "bool",
          "name": "",
          "type": "bool"
        }
      ],
      "stateMutability": "view",
      "type": "function"
    },
    {
      "inputs": [
        {
          "internalType": "uint256",
          "name": "",
          "type": "uint256"
        }
      ],
      "name": "employees",
      "outputs": [
        {
          "internalType": "address",
          "name": "",
          "type": "address"
        }
      ],
      "stateMutability": "view",
      "type": "function"
    },
    {
      "inputs": [
        {
          "internalType": "address",
          "name": "empAddress",
          "type": "address"
        },
        {
          "internalType": "string",
          "name": "name",
          "type": "string"
        },
        {
          "internalType": "uint256",
          "name": "lat",
          "type": "uint256"
        },
        {
          "internalType": "uint256",
          "name": "lon",
          "type": "uint256"
        },
        {
          "internalType": "uint256",
          "name": "allowedDistance",
          "type": "uint256"
        }
      ],
      "name": "addEmployee",
      "outputs": [],
      "stateMutability": "nonpayable",
      "type": "function"
    },
    {
      "inputs": [
        {
          "internalType": "address",
          "name": "empAddress",
          "type": "address"
        }
      ],
      "name": "getEmployeeDetail",
      "outputs": [
        {
          "internalType": "string",
          "name": "",
          "type": "string"
        },
        {
          "internalType": "uint256",
          "name": "",
          "type": "uint256"
        },
        {
          "internalType": "uint256",
          "name": "",
          "type": "uint256"
        },
        {
          "internalType": "uint256",
          "name": "",
          "type": "uint256"
        }
      ],
      "stateMutability": "view",
      "type": "function"
    },
    {
      "inputs": [
        {
          "internalType": "uint256",
          "name": "lat",
          "type": "uint256"
        },
        {
          "internalType": "uint256",
          "name": "lon",
          "type": "uint256"
        },
        {
          "internalType": "uint256",
          "name": "etimestamp",
          "type": "uint256"
        }
      ],
      "name": "ingestCoordinate",
      "outputs": [],
      "stateMutability": "nonpayable",
      "type": "function"
    },
    {
      "inputs": [
        {
          "internalType": "uint256",
          "name": "x",
          "type": "uint256"
        }
      ],
      "name": "sqrt",
      "outputs": [
        {
          "internalType": "uint256",
          "name": "y",
          "type": "uint256"
        }
      ],
      "stateMutability": "pure",
      "type": "function"
    },
    {
      "inputs": [
        {
          "internalType": "uint256",
          "name": "lat2",
          "type": "uint256"
        },
        {
          "internalType": "uint256",
          "name": "lon2",
          "type": "uint256"
        }
      ],
      "name": "calculateDistance",
      "outputs": [
        {
          "internalType": "uint256",
          "name": "dist",
          "type": "uint256"
        }
      ],
      "stateMutability": "view",
      "type": "function"
    }
  ],
  "bytecode": "0x608060405234801561001057600080fd5b50336000806101000a81548173ffffffffffffffffffffffffffffffffffffffff021916908373ffffffffffffffffffffffffffffffffffffffff16021790555061121c806100606000396000f3fe608060405234801561001057600080fd5b506004361061007d5760003560e01c8063677342ce1161005b578063677342ce146101155780636945f08d1461014557806396de335f14610161578063b8aa839a1461017d5761007d565b806325ce5e13146100825780634739326b146100b25780635a328d8b146100e2575b600080fd5b61009c600480360381019061009791906107de565b6101ad565b6040516100a9919061082d565b60405180910390f35b6100cc60048036038101906100c79190610848565b610213565b6040516100d991906108b6565b60405180910390f35b6100fc60048036038101906100f791906108fd565b610252565b60405161010c94939291906109c3565b60405180910390f35b61012f600480360381019061012a9190610848565b6103ff565b60405161013c919061082d565b60405180910390f35b61015f600480360381019061015a9190610a0f565b61045c565b005b61017b60048036038101906101769190610b97565b61058d565b005b610197600480360381019061019291906108fd565b610774565b6040516101a49190610c49565b60405180910390f35b60008060006101bb33610252565b5092509250506000610205600283876101d49190610c93565b6101de9190610e07565b600285896101ec9190610c93565b6101f69190610e07565b6102009190610e52565b6103ff565b905080935050505092915050565b6003818154811061022357600080fd5b906000526020600020016000915054906101000a900473ffffffffffffffffffffffffffffffffffffffff1681565b60606000806000600160008673ffffffffffffffffffffffffffffffffffffffff1673ffffffffffffffffffffffffffffffffffffffff168152602001908152602001600020600001600160008773ffffffffffffffffffffffffffffffffffffffff1673ffffffffffffffffffffffffffffffffffffffff16815260200190815260200160002060010154600160008873ffffffffffffffffffffffffffffffffffffffff1673ffffffffffffffffffffffffffffffffffffffff16815260200190815260200160002060020154600160008973ffffffffffffffffffffffffffffffffffffffff1673ffffffffffffffffffffffffffffffffffffffff1681526020019081526020016000206003015483805461037090610ed7565b80601f016020809104026020016040519081016040528092919081815260200182805461039c90610ed7565b80156103e95780601f106103be576101008083540402835291602001916103e9565b820191906000526020600020905b8154815290600101906020018083116103cc57829003601f168201915b5050505050935093509350935093509193509193565b60008060026001846104119190610e52565b61041b9190610f37565b90508291505b8181101561045657809150600281828561043b9190610f37565b6104459190610e52565b61044f9190610f37565b9050610421565b50919050565b600081101580156104705750620151808111155b61047957600080fd5b600061048584846101ad565b9050600160003373ffffffffffffffffffffffffffffffffffffffff1673ffffffffffffffffffffffffffffffffffffffff1681526020019081526020016000206003015481111561052e576000600260003373ffffffffffffffffffffffffffffffffffffffff1673ffffffffffffffffffffffffffffffffffffffff16815260200190815260200160002060006101000a81548160ff021916908315150217905550610587565b6001600260003373ffffffffffffffffffffffffffffffffffffffff1673ffffffffffffffffffffffffffffffffffffffff16815260200190815260200160002060006101000a81548160ff0219169083151502179055505b50505050565b60008054906101000a900473ffffffffffffffffffffffffffffffffffffffff1673ffffffffffffffffffffffffffffffffffffffff163373ffffffffffffffffffffffffffffffffffffffff16146105e557600080fd5b83600160008773ffffffffffffffffffffffffffffffffffffffff1673ffffffffffffffffffffffffffffffffffffffff16815260200190815260200160002060000190816106349190611114565b5082600160008773ffffffffffffffffffffffffffffffffffffffff1673ffffffffffffffffffffffffffffffffffffffff1681526020019081526020016000206001018190555081600160008773ffffffffffffffffffffffffffffffffffffffff1673ffffffffffffffffffffffffffffffffffffffff1681526020019081526020016000206002018190555080600160008773ffffffffffffffffffffffffffffffffffffffff1673ffffffffffffffffffffffffffffffffffffffff168152602001908152602001600020600301819055506003859080600181540180825580915050600190039060005260206000200160009091909190916101000a81548173ffffffffffffffffffffffffffffffffffffffff021916908373ffffffffffffffffffffffffffffffffffffffff1602179055505050505050565b60026020528060005260406000206000915054906101000a900460ff1681565b6000604051905090565b600080fd5b600080fd5b6000819050919050565b6107bb816107a8565b81146107c657600080fd5b50565b6000813590506107d8816107b2565b92915050565b600080604083850312156107f5576107f461079e565b5b6000610803858286016107c9565b9250506020610814858286016107c9565b9150509250929050565b610827816107a8565b82525050565b6000602082019050610842600083018461081e565b92915050565b60006020828403121561085e5761085d61079e565b5b600061086c848285016107c9565b91505092915050565b600073ffffffffffffffffffffffffffffffffffffffff82169050919050565b60006108a082610875565b9050919050565b6108b081610895565b82525050565b60006020820190506108cb60008301846108a7565b92915050565b6108da81610895565b81146108e557600080fd5b50565b6000813590506108f7816108d1565b92915050565b6000602082840312156109135761091261079e565b5b6000610921848285016108e8565b91505092915050565b600081519050919050565b600082825260208201905092915050565b60005b83811015610964578082015181840152602081019050610949565b83811115610973576000848401525b50505050565b6000601f19601f8301169050919050565b60006109958261092a565b61099f8185610935565b93506109af818560208601610946565b6109b881610979565b840191505092915050565b600060808201905081810360008301526109dd818761098a565b90506109ec602083018661081e565b6109f9604083018561081e565b610a06606083018461081e565b95945050505050565b600080600060608486031215610a2857610a2761079e565b5b6000610a36868287016107c9565b9350506020610a47868287016107c9565b9250506040610a58868287016107c9565b9150509250925092565b600080fd5b600080fd5b7f4e487b7100000000000000000000000000000000000000000000000000000000600052604160045260246000fd5b610aa482610979565b810181811067ffffffffffffffff82111715610ac357610ac2610a6c565b5b80604052505050565b6000610ad6610794565b9050610ae28282610a9b565b919050565b600067ffffffffffffffff821115610b0257610b01610a6c565b5b610b0b82610979565b9050602081019050919050565b82818337600083830152505050565b6000610b3a610b3584610ae7565b610acc565b905082815260208101848484011115610b5657610b55610a67565b5b610b61848285610b18565b509392505050565b600082601f830112610b7e57610b7d610a62565b5b8135610b8e848260208601610b27565b91505092915050565b600080600080600060a08688031215610bb357610bb261079e565b5b6000610bc1888289016108e8565b955050602086013567ffffffffffffffff811115610be257610be16107a3565b5b610bee88828901610b69565b9450506040610bff888289016107c9565b9350506060610c10888289016107c9565b9250506080610c21888289016107c9565b9150509295509295909350565b60008115159050919050565b610c4381610c2e565b82525050565b6000602082019050610c5e6000830184610c3a565b92915050565b7f4e487b7100000000000000000000000000000000000000000000000000000000600052601160045260246000fd5b6000610c9e826107a8565b9150610ca9836107a8565b925082821015610cbc57610cbb610c64565b5b828203905092915050565b60008160011c9050919050565b6000808291508390505b6001851115610d1e57808604811115610cfa57610cf9610c64565b5b6001851615610d095780820291505b8081029050610d1785610cc7565b9450610cde565b94509492505050565b600082610d375760019050610df3565b81610d455760009050610df3565b8160018114610d5b5760028114610d6557610d94565b6001915050610df3565b60ff841115610d7757610d76610c64565b5b8360020a915084821115610d8e57610d8d610c64565b5b50610df3565b5060208310610133831016604e8410600b8410161715610dc95782820a905083811115610dc457610dc3610c64565b5b610df3565b610dd68484846001610cd4565b92509050818404811115610ded57610dec610c64565b5b81810290505b9392505050565b600060ff82169050919050565b6000610e12826107a8565b9150610e1d83610dfa565b9250610e4a7fffffffffffffffffffffffffffffffffffffffffffffffffffffffffffffffff8484610d27565b905092915050565b6000610e5d826107a8565b9150610e68836107a8565b9250827fffffffffffffffffffffffffffffffffffffffffffffffffffffffffffffffff03821115610e9d57610e9c610c64565b5b828201905092915050565b7f4e487b7100000000000000000000000000000000000000000000000000000000600052602260045260246000fd5b60006002820490506001821680610eef57607f821691505b602082108103610f0257610f01610ea8565b5b50919050565b7f4e487b7100000000000000000000000000000000000000000000000000000000600052601260045260246000fd5b6000610f42826107a8565b9150610f4d836107a8565b925082610f5d57610f5c610f08565b5b828204905092915050565b60008190508160005260206000209050919050565b60006020601f8301049050919050565b600082821b905092915050565b600060088302610fca7fffffffffffffffffffffffffffffffffffffffffffffffffffffffffffffffff82610f8d565b610fd48683610f8d565b95508019841693508086168417925050509392505050565b6000819050919050565b600061101161100c611007846107a8565b610fec565b6107a8565b9050919050565b6000819050919050565b61102b83610ff6565b61103f61103782611018565b848454610f9a565b825550505050565b600090565b611054611047565b61105f818484611022565b505050565b5b818110156110835761107860008261104c565b600181019050611065565b5050565b601f8211156110c85761109981610f68565b6110a284610f7d565b810160208510156110b1578190505b6110c56110bd85610f7d565b830182611064565b50505b505050565b600082821c905092915050565b60006110eb600019846008026110cd565b1980831691505092915050565b600061110483836110da565b9150826002028217905092915050565b61111d8261092a565b67ffffffffffffffff81111561113657611135610a6c565b5b6111408254610ed7565b61114b828285611087565b600060209050601f83116001811461117e576000841561116c578287015190505b61117685826110f8565b8655506111de565b601f19841661118c86610f68565b60005b828110156111b45784890151825560018201915060208501945060208101905061118f565b868310156111d157848901516111cd601f8916826110da565b8355505b6001600288020188555050505b50505050505056fea26469706673582212202558f109493148e22d958ff9af802196812384d8191a91e8593d6677a1b72a4964736f6c634300080f0033",
  "immutableReferences": {},
  "source": "//SPDX-License-Identifier: Unlicense\npragma solidity ^0.8.0;\n\n\ncontract Refund {\n    address owner;\n    struct EmployeeDetail {\n        string name;\n        uint256 lat;\n        uint256 lon;\n        uint256 allowedDistance;\n    }\n    mapping (address => EmployeeDetail) employeeDetail;\n    mapping(address => bool) public employeeCondition;\n    address[] public employees;\n\n\n    constructor() {\n        owner = msg.sender;\n    }\n\n    function addEmployee(address empAddress, string memory name, uint256 lat, uint256 lon, uint256 allowedDistance) public {\n        // restrict employee creation to owner\n        // Builds a basic employee struc and adds the employee to \n        require(msg.sender == owner);\n\n        employeeDetail[empAddress].name = name;\n\n        employeeDetail[empAddress].lat = lat;\n\n        employeeDetail[empAddress].lon = lon;\n\n        employeeDetail[empAddress].allowedDistance = allowedDistance;\n\n        employees.push(empAddress);\n    }\n\n    function getEmployeeDetail(address empAddress) public view returns (string memory, uint256, uint256, uint256) {\n        return (employeeDetail[empAddress].name, employeeDetail[empAddress].lat, employeeDetail[empAddress].lon, employeeDetail[empAddress].allowedDistance);\n    }\n\n    function ingestCoordinate(uint256 lat, uint256 lon, uint256 etimestamp) public  {\n       require(etimestamp >= 0 && etimestamp <= 86400);\n       uint256 distance = calculateDistance(lat, lon);\n       if (distance > employeeDetail[msg.sender].allowedDistance) {\n           employeeCondition[msg.sender] = false;\n       } else {\n           employeeCondition[msg.sender] = true;\n       }\n\n    }\n\n\n    // Calculate Square root\n    function sqrt(uint x) public pure returns (uint y) {\n    uint z = (x + 1) / 2;\n    y = x;\n        while (z < y) {\n            y = z;\n            z = (x / z + z) / 2;\n        }\n        return y;\n    }\n\n    function calculateDistance(uint256 lat2, uint256 lon2) public view returns (uint256 dist)\n    {\n   \n        // The math module contains a function\n        // named toRadians which converts from\n        // degrees to radians.\n        (,uint256 lat1, uint256 lon1,) = getEmployeeDetail(msg.sender);\n\n        uint256 distance = uint256(sqrt((lat2 - lat1) ** 2 + (lon2 - lon1) ** 2));\n        return uint256(distance);\n\n    }\n}",
  "sourcePath": "/home/teddy/dev/learning/10 academy/working/Refund-by-Location-dApp/contracts/Refund.sol",
  "compiler": {
    "name": "solc",
    "version": "0.8.15+commit.e14f2714.Emscripten.clang"
  },
  "schemaVersion": "3.4.8",
  "updatedAt": "2022-07-19T04:56:45.795Z",
  "devdoc": {
    "kind": "dev",
    "methods": {},
    "version": 1
  },
  "userdoc": {
    "kind": "user",
    "methods": {},
    "version": 1
  }
}